:100000000C949A020C94B7020C94B7020C94B702A9
:100010000C94B7020C94B7020C94B7020C94B7027C
:100020000C94B7020C94B7020C94521C0C948E1BC7
:100030000C9427120C94B7020C94B7020C94B702DC
:100040000C94B7020C94B7020C94B7020C94B7024C
:100050000C94B7020C94D0110C94B7020C94B70214
:100060000C94B7020C94B7020C94B7020C94B7022C
:100070000C94B7020C94B7020C94B7020C94B7021C
:100080000C94B7020C94B7020C94B7020C94B7020C
:100090000C94B7020C94B7020C94B7020C94B702FC
:1000A0000C94B7020C94B7020C94B7021806180609
:1000B00054065406A606C80690080109D506B307DB
:1000C000C607C6079D08CC08A508A808B308AD0850
:1000D000B608FC09FF09020A050A080A0B0A0E0AFB
:1000E000810D860D900D840D890D8E0D8C0D2115C1
:1000F0002115341534152A153415341534152115E8
:1001000021152F15341534152F159D19C419661B8B
:10011000C419661B0C1A2F1A661B2A1B3D1B2900CB
:100120002B00346AD75C356100001E001400040007
:100130001D611D0819081F001A0016001B001D0A6A
:10014000500A20000800070006000258E3002100C2
:1001500015000900190001581B08220017000A00A9
:1001600005000000E2002D00350200002F00000015
:100170004C002E0239000000300000004A0023002D
:100180001C000B00110000004D00240018000D00A1
:10019000100050004B0025000C000E0036005100EE
:1001A0002C00260012000F00370052004F1A2700C3
:1001B0001300330038714F004E002A003100280030
:1001C000D85C000F000001000100010001000100E7
:1001D0000000010001000100010001000100010018
:1001E00001005000010001005800010052005100C0
:1001F000010001002B00010001004F00010001007F
:1002000001000100010001000100000001000100E7
:100210000100000001000000010026022E00000085
:1002200001000000010027025700560037000000BF
:10023000010026025F002100590062000100270230
:1002400060005D005A0062000100010061005E0074
:100250005B00630001000100550054002E002E00D9
:10026000010001004C0001005800010000000100E5
:10027000010001000100010000006900010001000F
:100280000100010001006A000100010001000100FD
:1002900001000100010001000100135001000100F4
:1002A00001000100010010500100010001000100E7
:1002B000010000000100AC00A8000000AD0000003B
:1002C0000100AE00A9000000AA0000000100AB0080
:1002D00001000100010000000100430040003D005A
:1002E0003A0001000100440041003E003B000100D3
:1002F0000100450042003F003C00010001000100F8
:1003000001000100010001000100010001000100E5
:1003100001000100000001000100010001000100D6
:1003200000000100010001000100010001000100C6
:1003300001000100010001000100010001000100B5
:1003400001001250010001000100010001001050E5
:100350000100010001000100010000000100010096
:100360000100000001000000010001000100000088
:10037000010000000100010001000100F400000084
:10038000010001000100F200F40001000100010081
:10039000F000F100F1000100010001000100F30094
:1003A000F500010001000100010001000100010051
:1003B0000100010001000100010001000000050131
:1003C0000902A10185020901A100050919012905F8
:1003D00015002501950575018102950175038101BF
:1003E0000501093009311581257F950275088106BF
:1003F00009381581257F950175088106050C0A3895
:10040000021581257F950175088106C0C005010987
:1004100080A101850319012AB700150126B70095AF
:100420000175108100C0050C0901A10185041901A5
:100430002AA002150126A002950175108100C005B1
:10044000010906A1018505050719E029E715002521
:10045000019508750181020507190029EF1500258E
:100460000195F075018102050819012905950575A9
:10047000019102950175039101C005010906A101D1
:10048000050719E029E71500250195087501810286
:100490009501750881010507190029FF150026FF40
:1004A000009506750881000508190129059505754F
:1004B000019102950175039101C009023B000201FF
:1004C00000A0FA0904000001030101000921110143
:1004D00000012240000705810308000A0904010009
:1004E000010300000009211101000122BC000705E1
:1004F000820320000A1201100100000008EDFE072F
:10050000130100010203010403300000001603453B
:1005100000720067006F0064006F007800200045E3
:10052000005A00000008035A005300410000000474
:100530000309040011241FBECFEFDAE0DEBFCDBFF8
:1005400011E0A0E0B1E0E0E1F6E402C005900D9218
:10055000AC3EB107D9F723E0ACEEB1E001C01D928B
:10056000A932B207E1F70E94181E0C9406230C94DE
:1005700000004F925F926F927F928F929F92AF9204
:10058000BF92CF92DF92EF92FF920F931F93CF9380
:10059000DF93CDB7DEB72A970FB6F894DEBF0FBE54
:1005A000CDBFFC010081D18083819481892B41F0F2
:1005B00044244A94D41006C091E00F3F19F403C0BC
:1005C00091E001C090E090FD7FC67F0185E0DE01F3
:1005D000169601900D928A95E1F7F70122818E819E
:1005E0009F81222349F00E947E13182F682F8E814D
:1005F0009F810E94F81303C00E94CB13182F24E59B
:10060000129FF001112486E0D89EE00DF11D112407
:10061000E00FF11DEE0FFF1FE25EFE4F05911491FA
:1006200009309DE5190709F040C0F7018281882350
:10063000E1F19091E30281E0890F8770987F853026
:1006400020F4892B8093E30202C09093E30280910F
:10065000E3028770FFEF8F9FC00111249595879566
:10066000959587959927909389008093880090931A
:100670008B0080938A0090938D0080938C00409132
:10068000E3025091E4026091E5027091E6028FE08E
:1006900090E00E94952160919A0270919B02809156
:1006A0009C0290919D020E94220DF7018281882375
:1006B00069F0C801815E9C45059740F46FE1600FC9
:1006C0006093DF028CE090E00E94832117FF71C0ED
:1006D000F7018281882309F46CC08091A102809384
:1006E000EC011092A1028091DF02813071F048F09C
:1006F0008230C1F08430E1F486EE0E947A1888E1FD
:1007000015C082EE0E94B61713C083E00E94301716
:1007100088E10E94B61788E10E944F1783E00E948B
:10072000251706C082EE0E94B61787E50E947A1848
:100730008FE39CE90197F1F700C000005801E894AD
:10074000B7F8BCE0CB2ED12CC5010C2C02C096957D
:1007500087950A94E2F7282F2F7041F0822F90E0BE
:100760002A3010F44D9604C0069702C087E290E04C
:100770000E947A1894E0C91AD108ECEFCE16EFEF78
:10078000DE0611F78091DF02813039F040F08230CF
:1007900031F0843051F488E206C08CE204C082EE6D
:1007A0000E944F1702C00E947A188091EC0180933A
:1007B000A102033FFCE51F0709F180F4083D8CE529
:1007C0001807C9F0093D9CE5190721F1073DECE543
:1007D0001E0739F526E241EE61EE1FC0053FFCE53C
:1007E0001F07A1F078F0063F8CE51807D1F427E247
:1007F00045EE66EE12C027E245EE0EC026E241EE5F
:1008000060EE0BC027E245EE64EE07C026E241EE43
:1008100062EE03C028E241E065EEC7010E94960E39
:1008200096C1F7018281882309F439C11092ED0144
:100830000230FCE51F0708F41CC106312CE5120745
:1008400038F098012A5F3C452730310508F011C186
:100850000E94AD129093F6028093F5020F308CE562
:10086000180709F4CFC008F042C00830ECE51E07B5
:1008700009F4A8C0F0F404302CE5120709F490C084
:1008800068F402309CE5190709F486C003301C4562
:1008900009F0DFC08091F5028260D9C00630FCE526
:1008A0001F0709F487C008F089C08091F5028860AD
:1008B000CEC00B308CE5180709F495C068F40930F8
:1008C000ECE51E0709F482C00A301C4509F0C1C0DE
:1008D0008091F502886080C00D302CE5120709F484
:1008E00086C008F087C08091F5028D7FB0C00A3FB6
:1008F0009CE5190709F457C050F50231FCE51F07C4
:1009000009F488C068F400318CE5180709F47EC04A
:1009100001311C4509F09DC08091F5028F7B97C085
:100920000431ECE51E0709F487C008F479C00531ED
:100930001C4509F08EC08091F50282FB222720F928
:1009400091E0922790FB82F990FB83F980C00D3FE4
:100950008CE5180709F452C058F40B3FECE51E076C
:1009600029F10C3F1C4509F074C08091F60260C06B
:100970000F3F2CE5120709F458C080F101151D4501
:1009800009F067C08091F602982F909591708E7F44
:10099000892B90FB81F94DC08091F502816057C091
:1009A0008091F50219C08091F6021BC08091F60279
:1009B00082603FC08091F502806149C08091F5025C
:1009C000806245C08091F502806441C00E9410178A
:1009D0008091F50280683BC0846039C08091F60246
:1009E0008260816026C08091F5028E7F30C0809148
:1009F000F50219C08091F502877F29C08091F60227
:100A00008D7F17C08091F5028F7E21C08091F50205
:100A10008F7D1DC00E9410178091F5028F7717C03F
:100A20008091F502877F8B7F12C08091F6028D7FC7
:100A30008E7F8093F6020DC00E9410178091F50200
:100A400087FB222720F991E0922790FB87F980937A
:100A5000F5026091F5021091F60284E090E00E94A8
:100A60008321612F81E290E00E9483210E94101770
:100A70006EC006319CE5190719F58091A1028A7AAA
:100A800091E009F490E09093EE01882311F065E382
:100A900001C069E28BE092E00E9478120EC006313C
:100AA0001C4509F077C08091EE01882309F40AC43F
:100AB00065E38BE092E00E9450120E94381347C019
:100AC0000115ECE51E0739F00E3D1C4509F062C02A
:100AD0000E94BE123CC00E9410172FEF84E39CE0DE
:100AE000215080409040E1F700C00000F89481E080
:100AF0008093E00080E28093D8001092C900EFE17B
:100B0000FEE43197F1F700C000001DBA10926800B2
:100B10001CBC10BE1FBA10927A0010926E00109288
:100B20006F0010927100109272001092C900109222
:100B3000BC0014B817B81AB81DB810BA1092BC008F
:100B400015B818B81BB81EB811BA0C94003F8091A4
:100B50009E02877009F4B8C3F7018281882309F4E3
:100B6000B3C382E02A960FB6F894DEBF0FBECDBFA6
:100B7000DF91CF911F910F91FF90EF90DF90CF9079
:100B8000BF90AF909F908F907F906F905F904F90AD
:100B90000C945514F70100811181882349F0C80194
:100BA0000E947E13D82E682FC8010E94F81304C03B
:100BB000C8010E94CB13D82EB8018D2D0E94740B52
:100BC000082FD92EB82EF701C580C294AFE0CA22F3
:100BD000128111111092A00280919E028770C1F0C3
:100BE0001123B1F08D2D807F803449F090E2900F79
:100BF000983070F0803619F4F6EFBF1649F082E0B5
:100C00000E94551480919E028770AA24A39481119A
:100C1000A12C9D2C92947FE09722892D90E08C301E
:100C2000910508F0EEC2FC01EA5AFF4F0C94DF2157
:100C30009D2D9F708D2D807FC92E19F0C29460EF7D
:100C4000C6221123B9F0CC2009F457C280E2800FEC
:100C5000883010F0B11006C08091A102C82AC0925D
:100C6000A10205C08091A002C82AC092A0020E94E1
:100C7000381343C2802F0E944F17CC2009F41CC3A5
:100C8000005EC094083010F0B11006C08091A1023F
:100C9000C822C092A10205C08091A002C822C092C1
:100CA000A0020E94381308C39D2D9F708D2D807F58
:100CB000892E803219F0829450EF8522BB2029F0D2
:100CC00044244394B414F1F028C0112389F0809196
:100CD000A202CC2059F055245394C51007C0882A8D
:100CE000881609F4E3C28092A202E0C288291AC0E1
:100CF000CC2029F066246394C61409F4DDC20E9456
:100D0000321320C0112331F0772473947C1408F43B
:100D1000CDC207C0C110D0C215C0112331F0C1101F
:100D2000ECC1882D0E944517C1C2CC2059F029E39F
:100D3000B212F2C18FEF97EEE3E081509040E040B5
:100D4000E1F7E8C1882D0E943A17B6C28D2D86952D
:100D50008695837019F0813071F053C2112331F000
:100D6000802F9D2D93700E94520B53C280E090E023
:100D70000E94520B64C2112331F0802F9D2D93707D
:100D80000E943C0B46C280E090E00E943C0B57C2A0
:100D9000802F112329F00E9468110E94111239C27C
:100DA0000E94A0100E9411124AC28D2D837009F07A
:100DB00069C011112AC2902F929596959770990F3C
:100DC000990F802F8F70482E512C612C712C092E79
:100DD00004C0440C551C661C771C0A94D2F704FF0F
:100DE00012C04FE050E060E070E004C0440F551FB7
:100DF000661F771F9A95D2F7DB01CA0180959095FF
:100E0000A095B09503C080E090E0DC016D2D669563
:100E100066956370623019F1C8F42091A302309195
:100E2000A4024091A5025091A602613059F0842994
:100E30009529A629B729BC01CD01622373238423F8
:100E400095230AC0422A532A642A752ABC01CD017F
:100E500064297529862997290E948F14D6C184296F
:100E60009529A629B7294090A3025090A40260902A
:100E7000A5027090A602BC01CD01642575258625CA
:100E80009725EACF112319F08D2D817001C0869529
:100E9000882309F4BAC1902F929596959770990F6F
:100EA000990F802F8F70482E512C612C712C092E98
:100EB00004C0440C551C661C771C0A94D2F704FF2E
:100EC00012C04FE050E060E070E004C0440F551FD6
:100ED000661F771F9A95D2F7DB01CA01809590951E
:100EE000A095B09503C080E090E0DC016D2D669583
:100EF000669563706230D9F068F520919A0230915E
:100F00009B0240919C0250919D02613059F08429CE
:100F10009529A629B729BC01CD0162237323842317
:100F200095231EC0422A532A642A752A13C0842995
:100F30009529A629B72940909A0250909B0260906B
:100F40009C0270909D02BC01CD016425752586250B
:100F5000972506C0BC01CD016429752986299729EA
:100F60000E94241452C1FD2DFF70CF2E112339F0A1
:100F70008F2F0E946E14802F0E94451746C1802F2C
:100F80000E943A178C2D0E9430143FC1802F42EFEF
:100F9000442EB41409F46DC04B1450F030EF532EAE
:100FA000B51481F021EF622EB61409F454C058C074
:100FB00093EF792EB71409F466C024EFB21609F442
:100FC0007CC04EC0112311F1C11070C12D2D2F71A5
:100FD00081E090E0A0E0B0E0AC01BD0104C0440FAE
:100FE000551F661F771F2A95D2F780919A0290911C
:100FF0009B02A0919C02B0919D022A013B014826D0
:1010000059266A267B26C301B2014EC0552453944B
:101010005C1408F451C12D2D2F7181E090E0A0E007
:10102000B0E0AC01BD0104C0440F551F661F771F1F
:101030002A95D2F780919A0290919B02A0919C02EE
:10104000B0919D022A013B01482659266A267B263B
:10105000C301B2012FC0112339F08D2D8F713CC017
:10106000111148C0C1104DC08D2D8F710E943014D8
:1010700023C18D2D8F71112319F00E94301416C1D8
:101080000E946E1419C1112391F02D2D2F7181E052
:1010900090E0A0E0B0E0BC01CD0104C0660F771F76
:1010A000881F991F2A95D2F70E942414FFC060E080
:1010B00070E0CB010E942414FFC0112381F00D2D9C
:1010C0000F71802F0E946E1428E0029FC00111242E
:1010D000836080939E02802F0E946E14E7C081E09F
:1010E0000E94551481E08C1508F0E6C082E00E9451
:1010F0005514E2C0CC2009F4B0CF802F0E94B6175F
:10110000D5C0893349F49FEFE7EEF3E09150E0401A
:10111000F040E1F700C00000802F0E944F17CCC0C4
:101120008B2D90E0FC01E05FF109E730F10508F05C
:101130003FC0EE59FF4F0C94DF21112309F47FC00B
:101140009091AD0281E0892705C01093AD025FC088
:1011500081E081278093AD025AC0111158C081E00F
:101160008093AD026CC0111152C067C0112339F0D9
:1011700082E08093EF0181E08093AD024AC08091CC
:10118000EF01823019F481E08093EF018091EF014B
:10119000833009F054C04FC0112339F08091AC0264
:1011A000882371F21092AC0234C0CC2049F247C0BF
:1011B0008091AC02CC20C1F0882341F09091AD0227
:1011C00081E089278093AD021092AC02802F112319
:1011D00019F00E94B6171DC00E944F1786E0F70154
:1011E00011928A95E9F72BC0882389F011110FC05D
:1011F0009091AD0281E089278093AD021092AC02FC
:101200001EC088EF890D843010F40E94680B1123F2
:10121000B1F08D2D807F803619F4F6EFBF1679F08E
:101220008091EF01823019F483E08093EF01809187
:10123000EF01813021F41092EF011092AD02AA204B
:10124000A9F080919E0280FD11C0F7011282859560
:10125000859585950E946E14C7010E94B902809100
:101260009E028595859585950E94301485E0F7014D
:10127000DE01119601900D928A95E1F789819A819C
:101280000E94CB139A8124E5829FF001112486E00D
:10129000989FE00DF11D11248981E80FF11DEE0FDB
:1012A000FF1FE25EFE4F859194910EC088EF890D7D
:1012B000843008F0AECFA9CF88EF890D843008F0D4
:1012C000BECFA3CF69E2F5CB2A960FB6F894DEBF66
:1012D0000FBECDBFDF91CF911F910F91FF90EF9087
:1012E000DF90CF90BF90AF909F908F907F906F9046
:1012F0005F904F9008959091F50292FF0DC0282FB6
:101300002871283019F4877F846006C0282F247143
:10131000243011F48B7F886093FF0DC0282F287133
:10132000283119F4877E846106C0282F2471243166
:1013300011F48B7E88612091F60220FF0DC0382FBA
:101340003871383019F4877F816006C0382F3171C9
:10135000313011F48E7F886021FF0DC0282F287155
:10136000283119F4877E816106C0282F217121312F
:1013700011F48E7E886194FD877E0895CF93E82FC7
:10138000873080F58091070190910801892B09F041
:1013900047C0CE2F64E670E080E40E94BF209093A7
:1013A000080180930701892BD1F464E670E082E1A3
:1013B0000E9416219093080180930701892B79F4EC
:1013C00081E090E001C0880FCA95EAF764E670E01A
:1013D00080950E9416219093080180930701CF9178
:1013E0000C946B2190E0FC013797E730F105C0F4D5
:1013F000E759FF4F0C94DF21209A289811C0219AB9
:1014000029980EC0229A2A980BC0239A2B9808C0BC
:10141000529A5A9805C0539A5B9802C03E9A4698D1
:10142000CF910895CF93873008F03FC08091070196
:1014300090910801892B09F041C064E670E080E4D6
:101440000E94BF209093080180930701892B11F01F
:10145000C0E027C064E670E083E10E94162190930B
:10146000080180930701892B99F764E670E081E415
:101470000E94BF209093080180930701892B41F7B8
:1014800084E690E00E94462197FF05C090930801F2
:1014900080930701DDCFC82FC095109208011092EC
:1014A00007010E946B218C2F0AC09FB18FB1807FF2
:1014B000869586959370892B809501C080E0CF91A9
:1014C00008950F931F93CF93DF93CDB7DEB7679740
:1014D0000FB6F894DEBF0FBECDBF4B8B5C8B6D8B10
:1014E0007E8B8F8B0E891F890115110531F05F3FAF
:1014F00031F481E04F3F19F403C081E001C080E086
:1015000080FD32C0242F30E0A1E0B0E0042E01C005
:10151000AA0F0A94EAF7852F90E0662319F07091DC
:10152000AD0205C0FC01E350FE4F70817A237723A2
:10153000A1F046E0489FF001499FF00D1124E20F11
:10154000F31FEE0FFF1FED5EFE4F40815181FC0146
:10155000E350FE4F9081A92B06C0FC01E350FE4FE3
:10156000A0958081A823A08386E0FE013D96DF013F
:10157000982F1D929A95E9F74D875E876F87198B93
:10158000088BDE01179601900D928A95E1F7CE0146
:1015900007960E94381581113EC086E0FE013796FD
:1015A000DE01119601900D928A95E1F7FF81E885A1
:1015B0006A857B856115710531F0EF3F31F481E07B
:1015C000FF3F19F403C081E001C080E080FD23C02B
:1015D0002091310230E0C90101968770992740912E
:1015E000620250E08417950779F1F983EA837D83DD
:1015F0006C8396E0929FD001939FB00D1124AE5C56
:10160000BD4FFE01319601900D929A95E1F78093BE
:1016100031020E94991416E0809162029091310289
:101620008917F9F0189FC00111248E5C9D4F0E940C
:1016300038158823B1F08091620290E0019687709E
:10164000992780936202E8CF0E941017109231020E
:1016500010926202EBE2F2E086E0DF011D928A95D1
:10166000E9F767960FB6F894DEBF0FBECDBFDF91E6
:10167000CF911F910F9108952091FB013091FC01B2
:101680002817390771F09093FC018093FB01E091DA
:10169000F702F091F802309721F00084F185E02DF7
:1016A000099408952091F9013091FA01281739071A
:1016B00071F09093FA018093F901E091F702F091B3
:1016C000F802309721F00680F781E02D0994089503
:1016D000E091F702F091F802309721F00190F0814B
:1016E000E02D099480E00895CF93DF9324E5829F55
:1016F000C0011124FC0146E0749FE00DF11D11248E
:10170000E60FF11DEE0FFF1FE25EFE4FC591D49173
:10171000CE01C238D10569F1B0F4C133D10509F465
:1017200075C048F4C932D10509F469C0CA32D1057F
:1017300009F473C085C0C533D10509F459C0C93354
:10174000D105B9F07DC0C33ED10571F138F4C03E7A
:10175000D105B1F0C23ED10511F172C0C63ED1052E
:10176000B9F1C73ED105C9F1C43ED10509F068C041
:1017700024C02091F50220FD5DC021FD5BC060C04A
:101780002091F50220FD50C02091F60220FF57C1A4
:101790008091F50284FD51C183EE90E050C120910B
:1017A000F50222FF4CC1F4CF8091F50282FD3FC0CB
:1017B0008091F60280FD3EC0EBCF2091F60221FF22
:1017C0003EC18091F50284FD38C187EE90E037C1BB
:1017D0002091F50223FF33C1F4CF8091F50283FD00
:1017E0002CC08091F60281FFECCF84EE90E027C1FF
:1017F0002091F50225FF23C189E290E020C12091CC
:10180000F50225FF1CC185E390E019C12091F50286
:1018100026FF15C18AE290E012C12091F50226FF51
:101820000EC181E390E00BC189E390E008C182EE34
:1018300090E005C180EE90E002C186EE90E0FFC02E
:10184000C11552E5D50708F075C0C11521E5D207CD
:1018500028F09C2F8827816F906AF1C0C83ED1057F
:1018600070F5C03ED10508F0EAC0C83AD105B8F419
:10187000C53AD10550F08C2F855AC82FD0E0C554F9
:10188000DE4F888190E09064DAC0C130D10509F460
:10189000D6C008F4D2C0249708F4CFC0D0C0CF3B44
:1018A000D10508F0CAC08C2F885AC82FD0E0CC0FC1
:1018B000DD1FC254DE4F888199819464C0C0C11578
:1018C00040E2D40760F4C11551E0D50708F0B7C075
:1018D000C03FD10508F4B1C0CE019065B0C0C115BC
:1018E00080E4D80708F4A9C0C11520E5D20720F488
:1018F000CE019F70906AA3C0CE01F4E096958795C3
:10190000FA95E1F7282F23703C2F337081E090E0A7
:1019100002C0880F991F3A95E2F79C68922B2C2FF2
:101920002F702695269550E2259F90011124822B39
:10193000932B85C0C11546E5D40708F03FC0C115FB
:1019400055E5D50748F08C2F0E947B098F7190E0F8
:10195000982F8827906273C0C11584E5D80728F0B6
:101960009C2F8827846F906A6AC09E01237033275A
:101970009C2F96959695C115D34580F441E050E093
:1019800002C0440F551F2A95E2F780E2989F90010C
:101990001124CA01822B932B9C6851C041E050E076
:1019A00002C0440F551F2A95E2F780E2989F9001EC
:1019B0001124CA01822B932B9A6841C0C1155AE5A4
:1019C000D50778F5C11589E5D80710F18C2F8F70F0
:1019D0000E947B099E0194E0369527959A95E1F740
:1019E0002F7030E0322F22273069A901482B0EC01A
:1019F00090568115904208F58D2F8F710E947B09BA
:101A00009E01332730628F71A901582BCA0117C07C
:101A1000C11528E5D20788F09C2F8827806F906A2F
:101A20000EC0C1154BE5D40740F0CE01C1155CE5F1
:101A3000D507F0F69927906602C080E090E0DF912C
:101A4000CF910895CF92DF92EF92FF920F931F9361
:101A50006C01EE24FF24C114D104E104F10411F05F
:101A6000E0E103C06B017C01E0E033272F2D1E2D48
:101A70000D2D011511052105310519F0E85F6801EB
:101A8000790197018601F4E036952795179507951A
:101A9000FA95D1F7011511052105310519F0EC5F13
:101AA000680179019701860152E0369527951795CF
:101AB00007955A95D1F7011511052105310519F042
:101AC000EE5F680179019701860136952795179594
:101AD0000795012B022B032B09F0EF5F56985E98B8
:101AE00025982D9826982E9827982F980E2F10E03D
:101AF000F8013197E730F105A8F4E059FF4F0C9455
:101B0000DF21259A2D9A0EC0259A2D9A269A2E9A73
:101B100009C0259A2D9A04C0259A2D9A269A2E9AA4
:101B2000279A2F9A1F910F91FF90EF90DF90CF90FF
:101B3000089580E290E090930801809307018091DE
:101B4000F60181110EC00E94B92081E08093F60158
:101B50002FEF83ED90E3215080409040E1F700C0EB
:101B6000000064E670E080E40E94BF2090930801CA
:101B700080930701892B09F04EC064E670E080E095
:101B80000E9416219093080180930701892B09F088
:101B900042C064E670E080E00E9416219093080144
:101BA00080930701892BB9F564E670E08FE30E940A
:101BB00016219093080180930701892B61F50E94FB
:101BC0006B2164E670E080E40E94BF2090930801DE
:101BD00080930701892BF9F464E670E08CE00E94A1
:101BE00016219093080180930701892BA1F464E6E4
:101BF00070E080E00E941621909308018093070115
:101C0000892B49F464E670E08FE30E9416219093DB
:101C10000801809307010E946B21809107010895BC
:101C2000CF93DF9356985E9825982D9826982E98F6
:101C300027982F98C8E8D0E08FEF90E099838883A9
:101C4000AAE8B0E011969C938E93ECE8F0E09183C3
:101C50008083259A2D9A2FEF80E792E021508040D3
:101C60009040E1F700C00000269A2E9A2FEF80E7FF
:101C700092E0215080409040E1F700C00000279A98
:101C80002F9A2FEF80E792E0215080409040E1F7BB
:101C900000C0000025982D982FEF80E792E021509A
:101CA00080409040E1F700C0000026982E982FEF6A
:101CB00080E792E0215080409040E1F700C00000B2
:101CC00027982F988091E30287702FEF829FC001A1
:101CD000112495958795959587959927998388835C
:101CE00011969C938E939183808356985E98259845
:101CF0002D9826982E9827982F98DF91CF910895A8
:101D000084B1807F84B985B1807F85B98AB1837FB2
:101D10008AB98BB1837F8BB93E984698089580B37A
:101D20008C7080BB81B3836F81BB08950F931F9329
:101D3000CF93DF93C62FD42F122FFC0182818823EB
:101D4000C9F06093ED010E9405129093F801809311
:101D5000F70180E28C0F883008F057C0C77081E02F
:101D600001C0880FCA95EAF7DF91CF911F910F91BB
:101D70000C9445178091ED01681330C08091F701F4
:101D80009091F8010E94F611883C910538F500E227
:101D90000D0FCD17B9F080E28C0F883040F4C7707A
:101DA00081E001C0880FCA95EAF70E943A1708300F
:101DB00028F581E09D2F977001C0880F9A95EAF76A
:101DC0000E944517812F0E947A180830F0F4D770CE
:101DD00081E001C0880FDA95EAF70AC080E28C0F33
:101DE000883098F4C77081E001C0880FCA95EAF77F
:101DF000DF91CF911F910F910C943A17812FDF91B2
:101E0000CF911F910F910C947A18DF91CF911F9170
:101E10000F910895CF92DF92EF92FF920F931F934D
:101E2000CF93DF938091070190910801892B91F066
:101E30008091F5018F5F8093F50181110BC00E94A5
:101E4000990D90E09093080180930701892B11F47C
:101E50000E94100EC7EED2E07E0110E000E057E0D5
:101E6000C52EC10E812F0E94BE098C2D0E94BE0975
:101E7000812F0E94120AF7019081891721F0808337
:101E8000DD24D39401C0D12C8C2D0E94120AF701BD
:101E90009781891719F0878381E001C080E0D82AF3
:101EA0000D290E94800E1F5FFFEFEF1AFF0A173007
:101EB000B1F60E940512AC016091F1017091F2013E
:101EC0009093F2018093F1019091F001292F30E07D
:101ED000261B370BC901840F951F6BEF70E00E9422
:101EE000B721F82E8093F0012091F401222309F408
:101EF00043C01092F401E091DD02F091DE029F01F7
:101F0000225F3F4F10E04BEFE42EABEFB0E040819B
:101F10004B3FC9F0642F70E0F41620F0AC01461B73
:101F2000570B05C0AD01461B570B480F591F052E17
:101F3000000C660B770B4E3151056105710510F0F1
:101F4000E08201C011E03196E217F30701F7109328
:101F5000F401011102C0111111C01092F301E091BE
:101F6000DD02F091DE029091F401AAEFB2E0AF0140
:101F7000425F5F4F80E007C00111EFCF8091F30116
:101F80008111EBCF15C029913C91321741F030817E
:101F90003B3F21F4F0822C9391E001C081E0319627
:101FA0001196E417F50779F79093F4018093F30104
:101FB000802FDF91CF911F910F91FF90EF90DF90D5
:101FC000CF9008958091B0020895CF93DF9300D011
:101FD0001F92CDB7DEB79091D302943019F5898363
:101FE0007B836A8382E08093E9008FEF9091E80021
:101FF000815095FD06C095ED9A95F1F7000081118D
:10200000F5CF8091E80085FF0DC040E050E063E02F
:1020100070E0CE0101960E948D188091E8008E77C5
:102020008093E8000F900F900F90DF91CF9108956B
:10203000CF93DF93EC010E94101E823011F08430A8
:1020400031F4BE0184E0DF91CF910C94E50FDF9174
:10205000CF910895BC0183E00C94E50FCF93DF93FB
:10206000EC010E94101E823011F08430F9F482E0FD
:102070008093E9008FEF9091E800815095FD06C0B4
:1020800095ED9A95F1F700008111F5CF8091E80068
:1020900085FF0CC040E050E066E070E0CE010E9499
:1020A0008D188091E8008E778093E800DF91CF91C2
:1020B0000895CF93DF93EC010E94101E823011F03F
:1020C0008430D9F580910601882339F08091F5029A
:1020D00087FF03C060E282E002C068E081E0809395
:1020E000E9008FEF9091E800815095FD06C095EDD5
:1020F0009A95F1F700008111F5CF8091E80085FFF6
:102100001CC080910601811105C040E050E068E0EC
:1021100070E003C070E040E050E0CE010E948D18F6
:102120008091E8008E778093E80080E2FE01A1EBC9
:10213000B2E001900D928A95E1F7DF91CF91089579
:10214000803F39F48091120387FF6CC01092120314
:1021500069C0813F29F4809112031816BCF362C054
:1021600090911103823F29F497FF5CC010921103F4
:1021700059C0833F19F41916CCF354C0893F41F478
:102180008091130318160CF04DC0109213034AC02F
:102190008A3F29F48091130387FF44C0F6CF8B3F19
:1021A00039F48091140387FF3DC0109214033AC0A4
:1021B0008C3F29F4809114031816BCF333C0843F7C
:1021C00021F4809110038E7F17C0853F21F4809108
:1021D00010038D7F11C0863F21F4809110038B7F07
:1021E0000BC0873F21F480911003877F05C0883F93
:1021F00031F4809110038F7E8093100313C08D3FC4
:1022000021F48091AB028E7F0BC08E3F21F4809130
:10221000AB028D7F05C08F3F29F48091AB028B7F8D
:102220008093AB028091110381110EC08091120343
:1022300081110AC080911303811106C0809114039B
:10224000811102C010920C0308958091AB0280FDB1
:1022500018C081FD14C082FD16C080910C03882334
:1022600081F08C3380F427E0829FC00111246CE35D
:1022700070E00E94CB21862F672B19F005C083E008
:10228000089581E0089587E008958091AB0280FD74
:1022900017C081FD17C082FD19C080910C038823EF
:1022A00099F08C3398F423E2829FC00111246CE3EF
:1022B00070E00E94CB21862F672B49F481E00895BE
:1022C00088E0089581E1089585E0089583E2089506
:1022D000803F21F40E944511819504C0813F29F47B
:1022E0000E944511809312030895823F21F40E94B9
:1022F0004511819504C0833F29F40E9445118093C4
:1023000011030895893F19F40E94251105C08A3FE1
:1023100031F40E94251181958093130308958B3F1A
:1023200021F40E942511819504C08C3F29F40E945C
:102330002511809314030895843F21F480911003A4
:10234000816017C0853F21F480911003826011C025
:10235000863F21F48091100384600BC0873F21F4F5
:1023600080911003886005C0883F31F4809110038C
:1023700080618093100308958D3F21F48091AB021A
:1023800081600BC08E3F21F48091AB02826005C05A
:102390008F3F29F48091AB0284608093AB02089553
:1023A00078941F920F920FB60F9211248F939F93E0
:1023B000AF93BF938091A7029091A802A091A90228
:1023C000B091AA020196A11DB11D8093A70290931E
:1023D000A802A093A902B093AA02BF91AF919F91C6
:1023E0008F910F900FBE0F901F9018959C014FB7C3
:1023F000F8948091A7029091A802A091A902B091AF
:10240000AA024FBF821B930B08952FB7F8948091B7
:10241000A7029091A802A091A902B091AA022FBF91
:102420000895E091F702F091F802309749F082E0C8
:1024300080930F030480F581E02D8FE093E00995F0
:102440000E94051290930B0380930A0308951F9234
:102450000F920FB60F9211248F939F93AF93BF9358
:102460008091F902811113C08091A7029091A80276
:10247000A091A902B091AA024196A11DB11D80931D
:10248000A7029093A802A093A902B093AA02BF91B9
:10249000AF919F918F910F900FBE0F901F90189545
:1024A000209106012223C9F02091F50227FF15C0D3
:1024B000262F2695269526952E31C8F4FC01E20F8D
:1024C000F11D677081E090E001C0880F6A95EAF71E
:1024D00080959281892382830895FC01069622814A
:1024E000621301C012823196E817F907C1F7089507
:1024F000209106012223C1F02091F50227FF14C08C
:10250000262F2695269526952E3130F5FC01E20FD3
:10251000F11D677081E090E001C0880F6A95EAF7CD
:102520009281892B82830895FC0132962FEF30E04F
:102530004191641789F02F3F19F4411101C0232FF5
:102540003F5F3630A9F72F3F39F0FC01E20FF11D54
:1025500027FDFA95628308950895CF9384E090E073
:102560000E946F21C82F81E290E00E946F212C2FE2
:1025700030E0A901582BCA01CF9108956FEE7EEF8C
:1025800080E090E00E94A12160E082E090E00E9463
:10259000832160E083E090E00E9483211092A302F7
:1025A0001092A4021092A5021092A60260E084E0AC
:1025B00090E00E94832160E081E290E00E9483210C
:1025C00060E085E090E00E94832160E086E090E09A
:1025D0000E9483216FEF87E090E00E94832140E01A
:1025E00050E0BA0188E090E00E94952160E08DE023
:1025F00090E00E94832140E050E0BA0188E190E041
:102600000E94952160E087E190E00E94832140E0F4
:1026100050E0BA018CE190E00E94952160E080E2F8
:1026200090E00E9483211092E3021092E402109243
:10263000E5021092E60284E080618093E30240911B
:10264000E3025091E4026091E5027091E6028FE0AE
:1026500090E00E94952140E050E0BA0183E190E0D3
:102660000C9495218091A20281111092A2020895EA
:102670009091A1028091A002892B20919F02982F16
:10268000922B90930B028091A2028823D9F0892B80
:1026900080930B0280910601882331F08091F5022E
:1026A00087FF02C08EE101C086E0EDE0F2E090E03D
:1026B000815028F021912223D9F39F5FF9CF911106
:1026C0000E943213E091F702F091F8023097A9F0DE
:1026D00080910601882359F08091F50287FF07C099
:1026E00080910B0280930C0285E080930B020280A4
:1026F000F381E02D8BE092E009940895BF92CF9290
:10270000DF92EF92FF920F931F93CF93DF938C0191
:10271000C0909A02D0909B02E0909C02F0909D02A3
:102720008091A3029091A402A091A502B091A6026B
:10273000C82AD92AEA2AFB2ACFE1D0E0D701C6016C
:102740000C2E04C0B695A795979587950A94D2F755
:1027500080FD04C0219790F7B12C07C0BC2EB801B2
:102760008C2F0E94740B0197A9F38B2DDF91CF91D1
:102770001F910F91FF90EF90DF90CF90BF90089541
:10278000CF93DF93EC010E947E13BE010E94740B75
:10279000DF91CF910895292F220F920F990F890F62
:1027A000682F669566956695982F977085E0689F67
:1027B000B001112440E050E080E0FB01E40FF51F80
:1027C000ED59FD4F208130E0092E02C03695279546
:1027D0000A94E2F721703327042E01C0220F0A94D5
:1027E000EAF7822B4F5F5F4F4530510531F708956F
:1027F000292F220F920F990F890FE82FE695E69562
:10280000E695877051E001C0550F8A95EAF785E09B
:10281000E89FF0011124ED59FD4F20E030E070E019
:102820004081CB01022E02C0969587950A94E2F76B
:102830008170819584278523842781932F5F3F4F63
:102840002530310569F708950E94220D60939A02A0
:1028500070939B0280939C0290939D020C94F516BA
:102860000F931F9341E050E060E070E004C0440F1C
:10287000551F661F771F8A95D2F740955095609532
:10288000709580919A0290919B02A0919C02B091C8
:102890009D028A019B01082319232A233B23C90196
:1028A000B8011F910F910C94241420919E028095E1
:1028B000822380939E02982F977079F430E0482FFE
:1028C000082E000C550B2417350739F08595859592
:1028D00085950E94301410929E0208950F931F93C5
:1028E00041E050E060E070E004C0440F551F661FF7
:1028F000771F8A95D2F780919A0290919B02A091BE
:102900009C02B0919D028A019B01082B192B2A2B56
:102910003B2BC901B8011F910F910C9424146093B3
:10292000A3027093A4028093A5029093A6020C9434
:10293000F5168091620290913102891719F08F5F2C
:102940008770FBCF08950F931F93CF93DF938091F0
:10295000300282958F7009F05DC080912D0288232E
:1029600009F458C0809162021091310260912B02EB
:1029700070912C02C0912E02D0912F0291E06F3FF6
:1029800009F090E0292F06E0811709F443C0209751
:1029900021F07F3F21F030E003C031E001C0322F51
:1029A00090E030FD34C0089FF001099FF00D112424
:1029B000DF01AE5CBD4F11963C911197371327C0D4
:1029C0003C91361324C012963C91129731111FC0CE
:1029D00013964D915C9114974C1B5D0B483C51052F
:1029E000B0F4809130028F70806180933002E95C96
:1029F000FD4F80818F70806180838BE292E00E9426
:102A0000B902DF91CF911F910F910C949914019607
:102A10008770BACFDF91CF911F910F9108950E94D7
:102A2000C013292F2F70E92FE295EF704E2F50E041
:102A3000FA013297EE30F105B8F4E958FF4F0C94E3
:102A4000DF21803F99F018F4883E70F40FC0843F76
:102A500059F40CC0883E50F0813F31F407C0822FFA
:102A6000869586958695089580E0089581E008957D
:102A70009F92AF92BF92CF92DF92EF92FF920F930D
:102A80001F93CF93DF93CDB7DEB761970FB6F8945E
:102A9000DEBF0FBECDBF8C0185E0F801DE011D96C3
:102AA00001900D928A95E1F7F80190818181E28091
:102AB00030912B0260912C0240912E0250912F02F6
:102AC0004115510531F06F3F31F421E03F3F19F4DA
:102AD00003C021E001C020E0F22FF1709F2E20FD05
:102AE00023C1F801C380D4802BE2A22E22E0B22EB3
:102AF000F0902D02F601E41BF50BFF2009F4CEC087
:102B000020913002E83CF10508F099C0422F407F47
:102B100009F051C0681311C039130FC0FE2CE11029
:102B20000CC02F70206120933002C5010E94B902B1
:102B300080913002F801858345C1CD2831F08F3F67
:102B400031F421E09F3F19F403C021E001C020E0EF
:102B500020FD03C021E02E2502C020E030E0F22F4E
:102B6000F170FF2E20FF1DC02091620240913102C2
:102B700056E0241709F404C130E0529FF001539F3E
:102B8000F00D1124EE5CFD4F6181861306C060815B
:102B9000961303C06281E61204C02F5F3F4F277077
:102BA000E8CFFE2CEE2009F40DC180913002816047
:102BB0008093300250C0681307C0391305C0E1107C
:102BC00003C0F80125838DC09D878E878D859E85E6
:102BD0000E940F15882369F1EE2059F120913002EF
:102BE000822F82958F7090E0029774F080912B0273
:102BF00090912C0298878F831986DB86CA862C8752
:102C0000CE0107960E94B90286E0F801ABE2B2E07D
:102C100001900D928A95E1F70E94A3140DC06817E8
:102C2000E1F09D878E878D859E850E940F1581110D
:102C30001EC0C8010E94B902FF24F394C3C0422FF2
:102C4000407F69F78BE292E00E94B90286E0F501CD
:102C500011928A95E9F7F12CB5C03913E2CFE11052
:102C6000E0CFF8012583C8010E94B90257C0EE20C9
:102C700001F320913002822F82958F7090E00297AD
:102C80001CF280912B0290912C029A8389831B82E3
:102C9000DD82CC822E83CE010196B4CFE83CF105D3
:102CA000E8F5FE2CEE2029F2681327C0391325C061
:102CB0002091300220FD18C0822F82958F70482FFE
:102CC00050E04115510581F0F80125834F30510541
:102CD00041F08F5F982F9295907F822F8F70892B74
:102CE0008583C8010E94B90286E0F801ABE2B2E038
:102CF00001900D928A95E1F765C09D878E878D853D
:102D00009E850E940F1581117FCF809130028160D6
:102D100080933002C8010E94B90254C086E0F501D8
:102D200011928A95E9F74EC0EE2009F482CF9D8773
:102D30008E878D859E850E940F15F82E882309F4B5
:102D400078CF86E0F801ABE2B2E001900D928A956F
:102D5000E1F780912B0290912C020E94C013929572
:102D60009F70963051F4863F41F08091AD0291E022
:102D700089278093AD029093AC020E94A31422C0D5
:102D80009D878E878D859E850E94C013292F229551
:102D90002F70223028F49F7039F0811105C00BC0CC
:102DA000243028F49F7049F4805E883020F0C801F8
:102DB0000E94B9029F2CF92C05C0F8019581907FE3
:102DC00099F7F9CF8F2D61960FB6F894DEBF0FBE3D
:102DD000CDBFDF91CF911F910F91FF90EF90DF90CA
:102DE000CF90BF90AF909F9008951092A002109244
:102DF0009F020E943813EFE0F3E086E0DF011D92AE
:102E00008A95E9F710920C031092AB020E941112FE
:102E100080E090E00E94520B80E090E00C943C0B2C
:102E20001092A10280910601882331F08091F50271
:102E300087FF02C08EE101C086E0EDE0F2E0DF0135
:102E40001D928A95E9F70C94F516882341F0809538
:102E50009091A00289238093A0020C9438130895C6
:102E6000882339F09091A002892B8093A0020C94C2
:102E700038130895882341F080959091A102892309
:102E80008093A1020C9438130895882339F090910F
:102E9000A102892B8093A1020C94381308958823F2
:102EA00009F463C0823869F40E94680B81FF5DC039
:102EB00069E38BE092E00E9478120E94381369E384
:102EC0000EC0833891F40E94680B80FF4EC063E50A
:102ED0008BE092E00E9478120E94381363E58BE049
:102EE00092E00E9450120C943813843869F40E94C6
:102EF000680B82FF3AC067E48BE092E00E94781290
:102F00000E94381367E4EBCF9CEF980F913A10F4CE
:102F1000682FE5CF90E2980F983088F4877021E011
:102F200030E0A90102C0440F551F8A95E2F7CA019B
:102F300080959091A10289238093A102D4CF9BE533
:102F4000980F933020F480E090E00C94520B98E5B9
:102F5000980F973120F480E090E00C943C0B803F78
:102F600020F00E94A0100C9411120895CF93882392
:102F700009F4BEC0C82F8238B1F40E94680B81FDED
:102F8000B7C069E38BE092E00E9478120E94381388
:102F90002FEF81EE94E0215080409040E1F700C097
:102FA000000069E317C08338E1F40E94680B80FDDC
:102FB0009FC063E58BE092E00E9478120E94381374
:102FC0002FEF81EE94E0215080409040E1F700C067
:102FD000000063E58BE092E00E945012CF910C94C8
:102FE00038138438B1F40E94680B82FD81C067E415
:102FF0008BE092E00E9478120E9438132FEF81EE4E
:1030000094E0215080409040E1F700C0000067E468
:10301000E1CF8CEF8C0F813AC0F5809106018823B7
:10302000E1F08091F50287FF18C0EC2FE695E69558
:10303000E695F0E0E55FFD4F8281282F30E04C2FD0
:10304000477081E090E002C0880F991F4A95E2F72F
:1030500082239323892B61F412C0EDE0F2E083E137
:1030600092E02191C21721F08E179F07D1F707C078
:103070006C2F8BE092E00E9450120E9438136C2F4C
:103080008BE092E00E947812A9CF80E28C0F88300A
:1030900068F4C77081E090E001C0880FCA95EAF734
:1030A0009091A102892B8093A10298CFEBE5EC0FC0
:1030B000E33040F4F0E0E554FE4F808190E0CF91A2
:1030C0000C94520BE8E5EC0FE73150F4F0E0EE0F12
:1030D000FF1FE254FE4F80819181CF910C943C0BF5
:1030E000C03F30F08C2F0E946811CF910C941112C8
:1030F000CF910895CF93C82F0E94B617C93349F4D2
:103100002FEF87EE93E0215080409040E1F700C020
:1031100000008C2FCF910C944F17EF92FF920F93DA
:103120001F93CF93DF937C018B010E942B1D811194
:1031300019C0E70101151105A1F08091E80085FD96
:103140000AC08091E8008E778093E8000E942B1DD2
:10315000882381F307C089918093F1000150110900
:10316000E9CF80E0DF91CF911F910F91FF90EF9019
:1031700008951F93CF93DF93CDB7DEB7AA970FB60D
:10318000F894DEBF0FBECDBFE5EDF2E08091F10017
:10319000819322E0ED3DF207C9F78091D60283309A
:1031A00009F460C030F4813071F0823009F49AC0C3
:1031B000B1C08A3009F486C08B3009F46BC0893005
:1031C00009F0A8C020C08091D502813A09F0A2C0C0
:1031D0008091E800877F8093E8008091D9029091E8
:1031E000DA02892B21F460E281EB92E003C060E017
:1031F00080E090E070E00E94B21D8091E8008B7743
:103200008093E80087C08091D502813209F082C0A6
:103210008091D9029091DA02029708F07BC08091E8
:10322000E800877F8093E8008091E80082FD05C078
:103230008091D3028111F8CF6DC02091F30080916D
:10324000F20090E0922B029729F48091F1008B7F9D
:10325000813021F48091F1008093B0028091E800E8
:103260008B7754C08091D502813A09F053C0809188
:10327000D9029091DA02892B09F04CC08091E800C4
:10328000877F8093E8008091E80080FFFCCF8091E9
:10329000060137C08091D5028132E1F58091D902D3
:1032A0009091DA02892BB1F58091E800877F8093B5
:1032B000E8000E945E1D8091D702809306010E9463
:1032C000101728C08091D502813221F58091E80045
:1032D000877F8093E8000E945E1D8091D8028093D2
:1032E000AF0218C08091D502813AA1F48091E80024
:1032F000877F8093E8008091E80080FFFCCF809179
:10330000AF028093F1008091E8008E778093E8000F
:103310000E945E1D8091E80083FFD8C18091D50294
:103320009091D602492F50E04A30510508F0CEC1A5
:10333000FA01EB57FF4F0C94DF21803821F08238DF
:1033400009F0C4C108C08091D1029091D2029923A2
:1033500089F082600FC08091D9028F70873008F0A9
:10336000B5C18093E9008091EB0085FB882780F947
:103370001092E9009091E800977F9093E800809385
:10338000F1001092F10071C1282F2D7F09F09EC12C
:10339000882319F0823061F099C18091D702813081
:1033A00009F094C1933009F080E08093D2022EC0DE
:1033B0008091D70281112AC08091D9028F702FEF9E
:1033C000280F263008F082C18093E9002091EB009D
:1033D00020FF1CC0933021F48091EB00806214C068
:1033E0009091EB0090619093EB0021E030E0A90117
:1033F00002C0440F551F8A95E2F74093EA001092ED
:10340000EA008091EB0088608093EB001092E90065
:103410008091E800877F2CC1811158C11091D7029B
:103420001F778091E3008078812B8093E300809167
:10343000E800877F8093E8000E945E1D8091E8008D
:1034400080FFFCCF8091E30080688093E30011113E
:1034500002C082E001C083E08093D30237C180586C
:10346000823008F033C18091D7029091D8028C3D10
:1034700053E0950779F583E08A838AE289834FB721
:10348000F894DE01139620E03EE051E2E32FF0E0F5
:1034900050935700E49120FF03C0E295EF703F5F27
:1034A000EF708E2F90E0EA3010F0C79601C0C09602
:1034B0008D939D932F5F243149F74FBF8091E80092
:1034C000877F8093E8006AE270E0CE0101960E9457
:1034D000B21DBAC04091D9025091DA02292F332788
:1034E00023303105B1F068F42130310509F4FDC015
:1034F0002230310509F0EAC08BE390E0EAEBF4E01A
:1035000050C02132310581F12232310509F439C030
:10351000DDC0992781309105B9F070F082309105B6
:10352000D9F0039709F0D2C0E7E0F5E0E4918E2FDF
:1035300090E0E7E0F5E032C0EFE2F5E0E4918E2FB5
:1035400090E0EFE2F5E02AC0E5E2F5E0E4918E2FAD
:1035500090E0E5E2F5E022C0EDE0F5E0E4918E2FA9
:1035600090E0EDE0F5E01AC04115510509F4C2C044
:103570004130510509F0AAC089E090E0E5EEF4E0A1
:1035800010C04115510509F4BAC04130510509F088
:103590009DC08CEB90E0EEEBF3E003C0009709F4E4
:1035A00095C02091E800277F2093E8002091DB025E
:1035B0003091DC028217930708F49C0140E021154A
:1035C000310589F18091D302882309F43DC085300B
:1035D000D9F18091E80083FD37C08091E80082FD39
:1035E0002FC08091E80080FFEACF4091F3008091E6
:1035F000F20090E0942B2115310559F088309105A7
:1036000040F444914093F1003196215031090196E4
:10361000F2CF41E0089709F040E08091E8008E7712
:103620008093E800CCCF4111CDCF0AC08091D30266
:10363000882351F0853041F08091E80083FD04C07B
:103640008091E80082FFF2CF8091E8008B77809331
:10365000E8003CC08038D1F58091E800877F8093F6
:10366000E8008091D4028093F1008091E8008E7789
:103670008093E8000E945E1D29C0811127C08091BF
:10368000D7029091D8029927029704F58091E8001B
:10369000877F8093E8001091D7021093D4020E9494
:1036A0005E1D111106C08091E30087FD02C081E01C
:1036B00001C084E08093D30242E061EC81E00E948B
:1036C0007D1D42E261EC82E00E947D1D8091E80058
:1036D00083FF1AC08091E800877F8093E800809183
:1036E000EB0080628093EB000FC082E190E0E5EF99
:1036F000F4E057CF89E090E0ECECF4E052CF80E4C6
:1037000090E0EAE7F4E04DCFAA960FB6F894DEBF5A
:103710000FBECDBFDF91CF911F9108951F920F92E1
:103720000FB60F9211242F933F934F935F936F9394
:103730007F938F939F93AF93BF93CF93DF93EF9339
:10374000FF93C091E900CF708091EC00D82FD17029
:1037500080FDD0E81092E9008091F000877F80938F
:10376000F00078940E94B9181092E9008091F0005E
:1037700088608093F000CD2BCF70C093E900FF915B
:10378000EF91DF91CF91BF91AF919F918F917F91F9
:103790006F915F914F913F912F910F900FBE0F90BE
:1037A0001F901895E8EDF0E080818E7F8083109265
:1037B000E2001092DA001092E100A0EEB0E08C91ED
:1037C00081608C9380818F77808319BCA7EDB0E0F6
:1037D0008C918E7F8C9380818F7E80831092AE023D
:1037E0000895CF92DF92EF92FF920F931F93CF93A2
:1037F000DF93C8EDD0E088818F7E8883E7EDF0E02D
:1038000080818160808384E082BF81E08093AE020A
:1038100088818E7F888302EE10E0F801108210927A
:10382000DA0081EEC82ED12CF601108288818F77C4
:10383000888388818068888388818F7D888319BC8C
:103840001092D3021092D4021092D2021092D1029E
:1038500090EEE92EF12CF70180818B7F80838881A7
:103860008160888342E060E080E00E947D1DF60177
:1038700080818E7F8083F801808181608083808158
:1038800088608083F70180818E7F8083888180615A
:103890008883DF91CF911F910F91FF90EF90DF9080
:1038A000CF9008951F920F920FB60F9211242F936D
:1038B0003F934F935F936F937F938F939F93AF93B8
:1038C000BF93EF93FF938091E10082FF09C0809145
:1038D000E20082FF05C08091E1008B7F8093E100D0
:1038E0008091DA0080FF2AC08091D80080FF26C036
:1038F0008091DA008E7F8093DA008091D90080FF7A
:1039000018C080E189BD82E189BD09B400FEFDCF08
:1039100081E08093D3028091AE0281110FC00E949A
:10392000D21B0E94F11B8091E20084608093E20030
:1039300005C019BC1092D3021092AE028091E10032
:1039400080FF17C08091E20080FF13C08091E200E9
:103950008E7F8093E2008091E20080618093E2009C
:103960008091D80080628093D80019BC85E0809354
:10397000D3028091E10084FF32C08091E20084FF95
:103980002EC080E189BD82E189BD09B400FEFDCF72
:103990008091D8008F7D8093D8008091E1008F7E48
:1039A0008093E1008091E2008F7E8093E20080911D
:1039B000E20081608093E2008091D402882311F0BC
:1039C00084E007C08091E30087FD02C081E001C070
:1039D00083E08093D3020E9410170E94680B8091AD
:1039E000E10083FF27C08091E20083FF23C0809124
:1039F000E100877F8093E10082E08093D302109200
:103A0000D4028091E1008E7F8093E1008091E200FA
:103A10008E7F8093E2008091E20080618093E200DB
:103A200042E060E080E00E947D1D8091F0008860AF
:103A30008093F000FF91EF91BF91AF919F918F9193
:103A40007F916F915F914F913F912F910F900FBE9A
:103A50000F901F9018952091E4003091E50095E6B5
:103A60004091EC00842F817040FF23C08091E800DA
:103A700080FD1DC08091D302882399F0853099F094
:103A80008091EB0085FD11C04091E4005091E5006C
:103A90002417350729F3915011F09A01E1CF84E002
:103AA000089582E0089583E0089581E0089580E01C
:103AB00008954091E80042FFDDCF08958091D5023E
:103AC00087FF11C08091E80082FD05C08091D3027C
:103AD0008111F8CF11C08091E8008B770BC08091E5
:103AE000D302882349F08091E80080FFF8CF8091CD
:103AF000E8008E778093E8000895982F973068F556
:103B00009093E900981739F07091EC002091ED0046
:103B10005091F00003C0242F762F50E021FD02C009
:103B20009F5FECCF3091EB003E7F3093EB00309104
:103B3000ED003D7F3093ED003091EB00316030932C
:103B4000EB007093EC002093ED005093F000209177
:103B5000EE0027FDE5CF80E008958F708093E900A7
:103B600081E008952091DB023091DC0226173707AF
:103B700048F06115710539F42091E8002E77209303
:103B8000E80001C0B901FC0120E06115710579F17F
:103B90008091D3028823F1F18530F1F18091E80022
:103BA00083FD3CC08091E80082FD2EC08091E8003A
:103BB00080FFEBCF2091F3008091F20090E0922BF8
:103BC0006115710551F08830910538F421912093E9
:103BD000F100615071090196F3CF21E0089709F0D7
:103BE00020E08091E8008E778093E800CECF21110D
:103BF000CFCF0AC08091D302882361F0853061F075
:103C00008091E80083FD0AC08091E80082FFF2CF36
:103C100080E0089582E0089583E0089581E00895AA
:103C20008091D302843011F081E0089582E00895FC
:103C3000CF93DF93CDB7DEB760970FB6F894DEBFB2
:103C40000FBECDBF84B7877F84BF0FB6F894A89509
:103C500080916000886180936000109260000FBEC8
:103C600090E080E80FB6F894809361009093610033
:103C70000FBE85B7806885BF85B7806885BF0E9405
:103C8000D21B0E94F11B8091E20084608093E200CD
:103C900078948091D3028823A1F01091E9001F70DD
:103CA0009091EC00892F817090FD80E8182B109284
:103CB000E9008091E80083FD0E94B9181F701093FD
:103CC000E90082E084BD93E095BD9AEF97BD8093B3
:103CD0006E000E94990D90E0909308018093070177
:103CE0000E94800E0E948F0EA7EEB2E0EAEFF2E093
:103CF00011921D9223E0E830F207D1F78EE090E0B8
:103D00000E94E5218093DD029093DE02FC010E9675
:103D10002BEF2193E817F907E1F780E090E00E948C
:103D20007D218F3E9E4F11F00E94BE128CE090E0EC
:103D30000E946F2190E0A0E0B0E08093DF029093BA
:103D4000E002A093E102B093E20289EA809380004E
:103D500089E08093810024982C983F988AB18F7CC9
:103D60008AB96E98479A8BB180638BB9769A8FE047
:103D700090E00E9477216093E3027093E4028093C5
:103D8000E5029093E60267704FEF649FB001112443
:103D900075956795759567957727709389006093FA
:103DA000880070938B0060938A0070938D006093FD
:103DB0008C000E94100E80E090E00E947D218F3EDA
:103DC0009E4F11F00E94BE1282E090E00E946F218F
:103DD000809316030E94AD129093F6028093F50231
:103DE00083E090E00E946F21682F70E080E090E017
:103DF0000E948F1489E091E09093F8028093F7027B
:103E0000DD24D394CC24CA9480E1B82E92E1A92E6B
:103E100028E1E22EF12C30E4932E8091D3028530FC
:103E200009F047C08091D302843009F11092F90261
:103E30000FB6F894A895E09260000FBE90926000D3
:103E400083B7817F846083BF83B7816083BF7894A9
:103E5000889583B78E7F83BF0FB6F894A89580911D
:103E60006000886180936000109260000FBE8091B6
:103E7000D202882391F20E94990D90E0909308015C
:103E8000809307010E94800E0E948F0EEAEFF2E0FD
:103E9000119233E0E830F307D9F70E940A0FEAEFF6
:103EA000F2E08191811149C143E0E830F407C9F79C
:103EB000B4CF0E940A0FA7E1B3E0EAEFF2E000E01E
:103EC00010E0302F21919D91922721F180E08824EC
:103ED0008394492F4821D1F08F833887282181E0AE
:103EE00009F480E089870E9405128160782F9B8702
:103EF0008A874F81588569858B850E94610AF80100
:103F0000E95EFC4F80818826808218C08F5F880C14
:103F10008630F9F60F5F1F4F0E30110591F6CC86F3
:103F2000CD861E860E9405128160782F988B8F8720
:103F30004C855D856E8588890E94610A86E0EFE088
:103F4000F3E0DE01119601900D928A95E1F78091E0
:103F50001103811105C080911203882309F46CC0FC
:103F600080910D0390910E030E94F6119C01909197
:103F70000C03992309F4F5C02531310508F45CC020
:103F80009F3F19F09F5F90930C03109213031092C0
:103F9000140380911103181624F40E944511809394
:103FA00011038091110387FF05C00E94451181957F
:103FB0008093110380911203181624F40E94451176
:103FC000809312038091120387FF05C00E94451160
:103FD000819580931203309111033323D1F0209106
:103FE00012032223B1F045EB3403C00111249923BD
:103FF00019F09093110302C0D092110335EB230303
:10400000C0011124992319F09093120302C0D09299
:1040100012030E94111280910A0390910B03909356
:104020000E0380930D0386E0FE013196AFE0B3E00E
:1040300001900D928A95E1F780911303811105C0DB
:1040400080911403882309F46CC080910803909137
:1040500009030E94F6119C0190910C03992309F425
:1040600084C02531310508F45CC09F3F19F09F5F83
:1040700090930C031092110310921203809113037A
:10408000181624F40E9425118093130380911303C2
:1040900087FF05C00E9425118195809313038091AD
:1040A0001403181624F40E942511809314038091A0
:1040B000140387FF05C00E94251181958093140386
:1040C000309113033323D1F0209114032223B1F054
:1040D00045EB3403C0011124992319F09093130385
:1040E00002C0D092130335EB2303C001112499239E
:1040F00019F09093140302C0D09214030E9411127D
:1041000080910A0390910B03909309038093080315
:1041100086E0FE013196AFE0B3E001900D928A9502
:10412000E1F70E94680B90911503891709F475CE89
:104130000E94680B8093150370CEB9BCA9BC09B46A
:1041400000FEFDCF8091D8008F7D8093D8008091B4
:10415000E00082608093E0008091E00081FDFCCF70
:104160005CCE232B09F00ECF67CF232B09F07FCF36
:10417000D8CF1092B9008CE08093B8000895EF92E8
:10418000FF920F931F93CF93DF93182FEB011092A1
:10419000BC0084EA8093BC000E9405127C018091DF
:1041A000BC0087FD0EC0CF3F8FEFD807C1F30E9440
:1041B00005128E199F098C179D0788F38EEF9FEFCC
:1041C0002EC08091B900887F883041F08091B9007D
:1041D000887F803119F08FEF9FEF21C01093BB00D3
:1041E00084E88093BC000E9405128C018091BC0081
:1041F00087FD0CC0CF3F8FEFD807C1F30E94051297
:10420000801B910B8C179D0788F3D8CF8091B90044
:10421000887F883111F08034F1F680E090E0DF9102
:10422000CF911F910F91FF90EF9008950F931F93DF
:10423000CF93DF93EB018093BB0084E88093BC00B5
:104240000E9405128C018091BC0087FD0EC0CF3FFB
:104250008FEFD807C1F30E940512801B910B8C17BA
:104260009D0788F38EEF9FEF0CC02091B900287F47
:1042700081E090E0283211F480E090E09195819502
:104280009109DF91CF911F910F9108950F931F9383
:10429000CF93DF93EC0184E88093BC000E94051269
:1042A0008C018091BC0087FD0EC0CF3F8FEFD807F7
:1042B000C1F30E940512801B910B8C179D0788F398
:1042C0008EEF9FEF03C08091BB0090E0DF91CF9114
:1042D0001F910F91089584E98093BC000895F99986
:1042E000FECF92BD81BDF89A992780B50895A6E1C9
:1042F000B0E044E050E00C94A921A8E1B0E042E035
:1043000050E00C94A921262FF999FECF92BD81BDD2
:10431000F89A019700B4021639F01FBA20BD0FB603
:10432000F894FA9AF99A0FBE08950396272F0E94DF
:1043300084210E948321252F0E948421242F0C9404
:1043400084210196272F0E9484210C948321DC0173
:10435000CB01FC01F999FECF06C0F2BDE1BDF89A90
:10436000319600B40D9241505040B8F70895AA1B01
:10437000BB1B51E107C0AA1FBB1FA617B70710F050
:10438000A61BB70B881F991F5A95A9F78095909582
:10439000BC01CD01089597FB072E16F4009407D0B9
:1043A00077FD09D00E94B72107FC05D03EF4909517
:1043B00081959F4F0895709561957F4F0895EE0FF9
:1043C000FF1F0590F491E02D09940F931F93CF9355
:1043D000DF938230910510F482E090E0E0912703B2
:1043E000F091280320E030E0A0E0B0E0309719F130
:1043F000408151810281138148175907C8F0841701
:10440000950769F4109731F012960C931297139652
:104410001C9327C0009327031093280322C0211563
:10442000310519F04217530718F49A01BD01EF0145
:10443000DF01F801DBCF21153105F9F0281B390B1D
:104440002430310580F48A819B816115710521F04A
:10445000FB019383828304C09093280380932703F6
:10446000FE01329644C0FE01E20FF31F8193919347
:1044700022503109398328833AC020912503309195
:104480002603232B41F42091020130910301309344
:10449000260320932503209100013091010121156D
:1044A000310541F42DB73EB740910401509105010B
:1044B000241B350BE0912503F0912603E217F30747
:1044C000A0F42E1B3F0B2817390778F0AC014E5F84
:1044D0005F4F2417350748F04E0F5F1F5093260398
:1044E000409325038193919302C0E0E0F0E0CF0177
:1044F000DF91CF911F910F910895CF93DF93009794
:1045000009F481C0FC01329713821282A091270323
:10451000B0912803109781F420813181820F931F7D
:1045200020912503309126032817390751F5F09380
:104530002603E093250367C0ED0120E030E0CE17AD
:10454000DF0740F44A815B819E0141155105F1F07E
:10455000EA01F5CFD383C28340815181840F951F37
:10456000C817D90759F488819981840F951F02963D
:10457000918380838A819B81938382832115310576
:1045800029F4F0932803E09327033DC0E901FB835E
:10459000EA8349915991C40FD51FEC17FD0761F4C7
:1045A00080819181840F951F0296E9019983888308
:1045B000828193819B838A83E0E0F0E012968D9163
:1045C0009C911397009719F0FD01DC01F7CF8D91B5
:1045D0009C9111979D012E5F3F4F820F931F209159
:1045E0002503309126032817390769F4309729F4F9
:1045F000109228031092270302C013821282B093F4
:104600002603A0932503DF91CF910895F894FFCF5F
:10461000000029032000012000E20F59102E102A6B
:10462000101810000D010D020D030D040D050D00F5
:104630000C010C020C030C040C050C000B010B020A
:104640000B030B040B050B000A010A020A030A0400
:104650000A050A00090109020903090409050900FC
:1046600008010802080308040805080007010702FA
:1046700007030704070507000601060206030604F0
:1046800006050600050105020503050405050500EC
:1046900004010402040304040405040003010302EA
:1046A00003030304030503000201020202030204E0
:1046B00002050200010101020103010401050100DC
:1046C0000001000200030004000500818283E20073
:1046D000E900EA00B500B600B700CD008301CC00C8
:1046E0008A0192019401210223022402250226025A
:0C46F00027022A02B300B4006F00700023
:00000001FF
